:020000040000FA
:0400000090EF0FF07E
:10060000004E6F204C6F6773204172652041766108
:10061000696C61626C6500232074696D652020201F
:100620002020477220537000232054696D652020DC
:100630002020204772205370004C6F677320617236
:100640006520636C6561726564006C6F6720646F20
:10065000776E6C6F61646564004E6F204C6F6773DA
:1006600020617265005365742054696D6500537094
:0D0670006565640047656172000A0D0000B9
:10067E000F6E0001CC05D8A447EF03F049EF03F04D
:10068E00D1EF03F0D5510D6ED6510E6ED54BD62B44
:10069E000E5007E1650E0D5CD8B058EF03F05AEF1F
:1006AE0003F07AEF03F0C00E096E0FC001F0026A7C
:1006BE00000E046E0A0E036EC7EC0CF00150300FE4
:1006CE00A5EC10F0C10E096E0FC001F0026A000E0B
:1006DE00046E0A0E036E28EC0DF00150300FA5ECDF
:1006EE0010F095EF03F0D65107E1C80ED55DD8B0E6
:1006FE0083EF03F085EF03F091EF03F0C00E096E68
:10070E00200EA5EC10F0C10E096E200EA5EC10F017
:10071E0095EF03F0000ED66F000ED56FC30E096E67
:10072E000BC001F0026A000E046E0A0E036EC7ECD7
:10073E000CF00150300FA5EC10F0C40E096E0BC07A
:10074E0001F0026A000E046E0A0E036E28EC0DF024
:10075E000150300FA5EC10F0C60E096E0CC001F062
:10076E00026A000E046E0A0E036EC7EC0CF0015006
:10077E00300FA5EC10F0C70E096E0CC001F0026A26
:10078E00000E046E0A0E036E28EC0DF00150300FB1
:10079E00A5EC10F0C20E096E3A0EA5EC10F0020E8A
:1007AE000001CC19D8A4DEEF03F0E0EF03F068EF00
:1007BE0004F0D3510D6ED4510E6ED34BD42B0E507C
:1007CE0007E1650E0D5CD8B0EFEF03F0F1EF03F02B
:1007DE0011EF04F0C30E096E0BC001F0026A000E99
:1007EE00046E0A0E036EC7EC0CF00150300FA5EC30
:1007FE0010F0C40E096E0BC001F0026A000E046EFA
:10080E000A0E036E28EC0DF00150300FA5EC10F01F
:10081E002CEF04F0D45107E1C80ED35DD8B01AEF17
:10082E0004F01CEF04F028EF04F0C30E096E200E46
:10083E00A5EC10F0C40E096E200EA5EC10F02CEFF6
:10084E0004F0000ED46F000ED36FC00E096E0FC0F1
:10085E0001F0026A000E046E0A0E036EC7EC0CF075
:10086E000150300FA5EC10F0C10E096E0FC001F053
:10087E00026A000E046E0A0E036E28EC0DF0015093
:10088E00300FA5EC10F0C60E096E0CC001F0026A16
:10089E00000E046E0A0E036EC7EC0CF00150300F02
:1008AE00A5EC10F0C70E096E0CC001F0026A000E26
:1008BE00046E0A0E036E28EC0DF00150300FA5ECFD
:1008CE0010F0C50E096E3A0EA5EC10F0030E0001E5
:1008DE00CC19D8A475EF04F077EF04F0FFEF04F015
:1008EE00D1510D6ED2510E6ED14BD22B0E5007E15F
:1008FE00650E0D5CD8B086EF04F088EF04F0A8EF1B
:10090E0004F0C60E096E0CC001F0026A000E046EF1
:10091E000A0E036EC7EC0CF00150300FA5EC10F070
:10092E00C70E096E0CC001F0026A000E046E0A0EAC
:10093E00036E28EC0DF00150300FA5EC10F0C3EF54
:10094E0004F0D25107E1C80ED15DD8B0B1EF04F07A
:10095E00B3EF04F0BFEF04F0C60E096E200EA5EC47
:10096E0010F0C70E096E200EA5EC10F0C3EF04F0C8
:10097E00000ED26F000ED16FC00E096E0FC001F0C7
:10098E00026A000E046E0A0E036EC7EC0CF00150E4
:10099E00300FA5EC10F0C10E096E0FC001F0026A07
:1009AE00000E046E0A0E036E28EC0DF00150300F8F
:1009BE00A5EC10F0C30E096E0BC001F0026A000E1A
:1009CE00046E0A0E036EC7EC0CF00150300FA5EC4E
:1009DE0010F0C40E096E0BC001F0026A000E046E18
:1009EE000A0E036E28EC0DF00150300FA5EC10F03E
:1009FE0012004A0E036E0350D8A4060E046E800E2B
:100A0E00056E00EC0FF00001E351D8A411EF05F0D4
:100A1E0013EF05F01DEF05F0010E026E2EEC10F037
:100A2E00790E026E2EEC10F021EF05F0280E026EFC
:100A3E002EEC10F0B1EC0AF0000E186E000E176ED0
:100A4E0008EF06F0790E026E2EEC10F0090E171854
:100A5E001810D8A435EF05F037EF05F03FEF05F08D
:100A6E00310EB1EC10F0300EB1EC10F043EF05F09A
:100A7E001750310FB1EC10F0200EB1EC10F00D0E3E
:100A8E001702F3CF14F0F4CF15F01802F350152619
:100A9E00000E1424D96E010E1520DA6EDF50B1EC63
:100AAE0010F00D0E1702F3CF14F0F4CF15F018025C
:100ABE00F3501526010E1424D96E010E1520DA6E90
:100ACE00DF50B1EC10F03A0EB1EC10F00D0E170233
:100ADE00F3CF14F0F4CF15F01802F3501526020ED2
:100AEE001424D96E010E1520DA6EDF50B1EC10F021
:100AFE000D0E1702F3CF14F0F4CF15F01802F350C9
:100B0E001526030E1424D96E010E1520DA6EDF5051
:100B1E00B1EC10F03A0EB1EC10F00D0E1702F3CF4F
:100B2E0014F0F4CF15F01802F3501526040E142409
:100B3E00D96E010E1520DA6EDF50B1EC10F00D0EED
:100B4E001702F3CF14F0F4CF15F01802F350152658
:100B5E00050E1424D96E010E1520DA6EDF50B1EC9D
:100B6E0010F0200EB1EC10F00D0E1702F3CF14F0B2
:100B7E00F4CF15F01802F3501526060E1424D96E74
:100B8E00010E1520DA6EDF50B1EC10F00D0E1702CB
:100B9E00F3CF14F0F4CF15F01802F3501526070E0C
:100BAE001424D96E010E1520DA6EDF50B1EC10F060
:100BBE00200EB1EC10F00D0E1702F3CF14F0F4CF9F
:100BCE0015F01802F3501526080E1424D96E010ED6
:100BDE001520DA6EDF50B1EC10F00D0E1702F3CFC8
:100BEE0014F0F4CF15F01802F3501526090E142444
:100BFE00D96E010E1520DA6EDF50B1EC10F0174AE7
:100C0E00182A0001E351146E156A1450175C18501F
:100C1E00800A166E1550800A1658D8A019EF06F0E5
:100C2E001BEF06F029EF05F0790E026E2EEC10F098
:100C3E00330E156EBB0E146EE00EE82EFED7142E7C
:100C4E00FCD7152EFAD7010E0001E56F1200000E2B
:100C5E00016E010E11EC10F020EE60F010EE0DF0B2
:100C6E004F0EDBCFE3FFE806FCE20001CD05D8A472
:100C7E0043EF06F045EF06F077EF06F0E251D8A409
:100C8E004BEF06F04DEF06F077EF06F0800E096E93
:100C9E002A0EA5EC10F0C00E096E200EA5EC10F079
:100CAE000001CD51140DF3CF0BF0EC0E0B260B50B3
:100CBE000D0F0C6E0CC003F0046A810E056E00EC75
:100CCE000FF00001CD51140DF3500D0F0B6E0BC034
:100CDE0003F0046AC10E056E00EC0FF083EF06F010
:100CEE00800E096E200EA5EC10F0C00E096E2A0EB5
:100CFE00A5EC10F057EF06F05F04D8A489EF06F0CC
:100D0E008BEF06F0B6EF06F00001CD05D8A492EFFA
:100D1E0006F094EF06F0ABEF06F0E251D8A49AEF8E
:100D2E0006F09CEF06F0ABEF06F0800E096E200E7B
:100D3E00A5EC10F0C00E096E2A0EA5EC10F0010EF7
:100D4E000001E26F38EF07F0030ECD61B1EF06F050
:100D5E00B3EF06F038EF07F0CD2B38EF07F0020EA9
:100D6E005F18D8A4BDEF06F0BFEF06F0D6EF06F081
:100D7E000001CD05D8A4C6EF06F0C8EF06F0C9EF06
:100D8E0006F0E26B010ECD65CFEF06F0D1EF06F067
:100D9E0038EF07F0CD0738EF07F038EF07F00B0EFE
:100DAE005F18D8A4DDEF06F0DFEF06F038EF07F09E
:100DBE000001CD05D8A4E6EF06F0E8EF06F0FAEF55
:100DCE0006F0E251D8A4EEEF06F0F0EF06F0FAEFDF
:100DDE0006F0000E016E010E11EC10F0020E000175
:100DEE00E56F38EF07F0CD05D8A400EF07F002EF5E
:100DFE0007F014EF07F0E205D8A408EF07F00AEFAA
:100E0E0007F014EF07F0000E016E010E11EC10F05A
:100E1E00050E0001E56F38EF07F0020ECD19D8A4CC
:100E2E001BEF07F01DEF07F027EF07F0000E016E26
:100E3E00010E11EC10F0040E0001E56F38EF07F013
:100E4E00030ECD19D8A42EEF07F030EF07F0D4EF34
:100E5E0006F0000E016E010E11EC10F0030E0001F3
:100E6E00E56F1200650E036E0350D8A4060E046ED5
:100E7E00800E056E00EC0FF00001E051D8A44AEF91
:100E8E0007F04CEF07F063EF07F017EC0EF0010ED2
:100E9E000001E06FE6510A0DF350E725F00FDF6F0A
:100EAE00E8510A0DF350E925F00FDE6FEA510A0DF5
:100EBE00F350EB25F00FDD6F5F04D8A469EF07F058
:100ECE006BEF07F0ADEF07F0CC05D8A471EF07F08C
:100EDE0073EF07F07FEF07F0DF2B170EDF657AEF6A
:100EEE0007F07CEF07F0C2EF07F0DF6BC2EF07F001
:100EFE00020ECC19D8A486EF07F088EF07F095EF15
:100F0E0007F0DE2B3C0EDE19D8A490EF07F092EF1F
:100F1E0007F0C2EF07F0DE6BC2EF07F0030ECC193D
:100F2E00D8A49CEF07F09EEF07F0ABEF07F0DD2B98
:100F3E003C0EDD19D8A4A6EF07F0A8EF07F0C2EF1C
:100F4E0007F0DD6BC2EF07F0C2EF07F0020E5F187D
:100F5E00D8A4B4EF07F0B6EF07F0C2EF07F0CC2B32
:100F6E00040ECC19D8A4BEEF07F0C0EF07F0C2EF05
:100F7E0007F0010ECC6FDEC00BF0DDC00CF0DF51C0
:100F8E003FEC03F00B0E5F18D8A4D0EF07F0D2EFB2
:100F9E0007F02EEF08F0DFC001F0026A000E046EBB
:100FAE000A0E036E28EC0DF001C010F002C011F015
:100FBE00DFC001F0026A000E046E0A0E036EC7EC6B
:100FCE000CF00138F00B1010096E020E96EC10F0BA
:100FDE00DEC001F0026A000E046E0A0E036E28ECEB
:100FEE000DF001C010F002C011F0DEC001F0026A77
:100FFE00000E046E0A0E036EC7EC0CF00138F00BF7
:10100E001010096E010E96EC10F0DDC001F0026AB0
:10101E00000E046E0A0E036E28EC0DF001C010F0E7
:10102E0002C011F0DDC001F0026A000E046E0A0E5D
:10103E00036EC7EC0CF00138F00B1010096E000EA9
:10104E0096EC10F00001E06BE56B3AEF08F00C0E39
:10105E005F18D8A435EF08F037EF08F03AEF08F034
:10106E000001E56BE06B1200000E016E010E11EC3B
:10107E0010F020EEB0F010EE17F01A0EDBCFE3FFFB
:10108E00E806FCE2690E036E0350D8A4060E046E49
:10109E00800E056E00EC0FF06E0E036E0350D8A49A
:1010AE00060E046E860E056E00EC0FF0740E036EC7
:1010BE000350D8A4060E046E8C0E056E00EC0FF0D5
:1010CE00E60E0B6ED2EC0DF0B2EC0FF001C032F06A
:1010DE0002C033F032C001F033C002F0000E046ED5
:1010EE000A0E036E55EC0EF001C034F002C035F05E
:1010FE00355007E1640E345CD8B088EF08F08AEF03
:10110E0008F0AAEF08F0C90E096E34C001F035C020
:10111E0002F0000E046E0A0E036E55EC0EF0015036
:10112E00300FA5EC10F0CA0E096E34C001F035C0B8
:10113E0002F0000E046E0A0E036E36EC0FF0015034
:10114E00300FA5EC10F05F04D8A4B0EF08F0B2EFAA
:10115E0008F0DEEF08F00001E405D8A4B9EF08F0BE
:10116E00BBEF08F0C2EF08F0000EDC6F010EDB6F74
:10117E00E46BCFEF08F0DC5107E1070EDB5DD8B072
:10118E00CBEF08F0CDEF08F0CFEF08F0DB4BDC2B08
:10119E00E60E086EDB51030DF350170F096E34C0C7
:1011AE000AF035C00BF02AEC09F01CEF09F0020E24
:1011BE005F18D8A4E5EF08F0E7EF08F002EF09F0AA
:1011CE000001E405D8A4EEEF08F0F0EF08F0F2EF1E
:1011DE0008F0BBEF08F0DC5109E1020EDB5DD8A090
:1011EE00FBEF08F0FDEF08F0CFEF08F0DB07D8A01B
:1011FE00DC07CFEF08F0030E5F18D8A409EF09F053
:10120E000BEF09F01CEF09F0000E0001DC6F080E69
:10121E00DB6F010EE46FE60E086E2F0E096E34C002
:10122E000AF035C00BF02AEC09F00001DB51030D7A
:10123E00F350170F166E16C003F0046ACD0E056E2E
:10124E0000EC0FF01200000E156E000E146E000E64
:10125E000F6E000E0E6E08500E24D96EDA6A000163
:10126E00E3510D0D000EF3240C6E010EF4200D6EE5
:10127E0014500C24E16E15500D20E26EDFCFE7FF07
:10128E00144A152A0E4A0F2A0FBE57EF09F00F50B7
:10129E0009E1060E0E5CD8A057EF09F059EF09F0E0
:1012AE0032EF09F0000E116E000E106E0950102470
:1012BE00D96EDA6AE3510D0D000EF3240C6E010E99
:1012CE00F4200D6E14500C24E16E15500D20E26EBC
:1012DE00DFCFE7FF144A152A104A112A11BE81EFFB
:1012EE0009F0115009E1020E105CD8A081EF09F04F
:1012FE0083EF09F05DEF09F0E3510D0D000EF324BD
:10130E000C6E010EF4200D6E14500C24D96E155077
:10131E000D20DA6E0AC001F00BC002F0000E046E52
:10132E000A0E036E55EC0EF00150300FDF6E144AAC
:10133E00152A0001E3510D0D000EF3240C6E010E63
:10134E00F4200D6E14500C24D96E15500D20DA6E4B
:10135E000AC001F00BC002F0000E046E0A0E036EFE
:10136E0036EC0FF00150300FDF6E144A152A000EC6
:10137E00136E000E126E0001E3510D0D000EF324DC
:10138E000C6E010EF4200D6E12500C24D96E1350FB
:10139E000D20DA6EDF50026ED951D2EC0FF0000143
:1013AE00D94BDA2B124A132A13BEE7EF09F013506A
:1013BE0009E10A0E125CD8A0E7EF09F0E9EF09F097
:1013CE00C2EF09F00A0EE361EFEF09F0F1EF09F059
:1013DE00F2EF09F0E32B640ED919DA11D8A4FAEF63
:1013EE0009F0FCEF09F000EF0AF0000EDA6F000EC4
:1013FE00D96F1200B1EC0AF0000E016E010E11EC65
:10140E0010F00001E351D8A40FEF0AF011EF0AF02B
:10141E0035EF0AF0590E036E0350D8A4060E046E73
:10142E00800E056E00EC0FF00D0E036E0350D8A467
:10143E00060E046EC60E056E00EC0FF0330E156E22
:10144E00BB0E146EE00EE82EFED7142EFCD7152E12
:10145E00FAD7010E0001E56FB0EF0AF0170E036E1A
:10146E000350D8A4060E046E800E056E00EC0FF02D
:10147E005F04D8A445EF0AF047EF0AF05DEF0AF0DB
:10148E00FF0E0001E325146E156AFF0E152214508F
:10149E00D75D1550D859D8B057EF0AF059EF0AF06A
:1014AE0081EF0AF0D74BD82B81EF0AF0020E5F18AE
:1014BE00D8A464EF0AF066EF0AF075EF0AF00001A7
:1014CE00D751D811D8B46EEF0AF070EF0AF081EF51
:1014DE000AF0D707D8A0D80781EF0AF00C0E5F18D4
:1014EE00D8A47CEF0AF07EEF0AF081EF0AF0010E2D
:1014FE000001E56F090E0001D719D811D8A48AEFA3
:10150E000AF08CEF0AF098EF0AF0C00E096E310E59
:10151E00A5EC10F0C10E096E300EA5EC10F09EEF8A
:10152E000AF0C00E096ED751310FA5EC10F00D0E5A
:10153E000001D703F3CF14F0F4CF15F0D803F35016
:10154E001526000E14240B6E010E15200C6EE5EC04
:10155E000BF012000A0E0001E319D8A4B9EF0AF03D
:10156E00BBEF0AF012EF0BF0D9C00CF0DAC00DF0A1
:10157E00000E0F6E000E0E6E000E116E000E106E2F
:10158E00640E0C180D10D8A4CFEF0AF0D1EF0AF0AC
:10159E00D5EF0AF0000E0D6E000E0C6E0D0E0E0243
:1015AE00F3CF04F0F4CF05F00F02F3500526000E32
:1015BE000424066E010E0520076E10500624D96E07
:1015CE0011500720DA6E0C5072EC10F0DF6E0C4AE0
:1015DE000D2A104A112A11BEFEEF0AF0115009E130
:1015EE000A0E105CD8A0FEEF0AF000EF0BF0C7EF6A
:1015FE000AF00E4A0F2A0FBE0EEF0BF00F5009E144
:10160E000A0E0E5CD8A00EEF0BF010EF0BF0C3EF2E
:10161E000AF060EF0BF0000E096E000E086E000E61
:10162E000B6E000E0A6E4DEF0BF0000E136E000ED9
:10163E00126E0D0E0A02F3CF04F0F4CF05F00B027A
:10164E00F3500526000E0424066E010E0520076ECB
:10165E0012500624D96E13500720DA6E085072EC21
:10166E0010F0DF6E084A092A124A132A13BE49EFF8
:10167E000BF0135009E10A0E125CD8A049EF0BF0E3
:10168E004BEF0BF020EF0BF00A4A0B2A0001E3514F
:10169E00046E056A04500A5C0B50800A066E0550F3
:1016AE00800A0658D8A05EEF0BF060EF0BF01CEF2F
:1016BE000BF01200819A818E818C81B269EF0BF052
:1016CE006BEF0BF06EEF0BF0010EE4EF0BF081B44D
:1016DE0073EF0BF075EF0BF078EF0BF0040EE4EFF9
:1016EE000BF081B67DEF0BF07FEF0BF082EF0BF07E
:1016FE00070EE4EF0BF081B887EF0BF089EF0BF0DC
:10170E008CEF0BF00A0EE4EF0BF0819C818E818A38
:10171E0081B294EF0BF096EF0BF099EF0BF0020EF7
:10172E00E4EF0BF081B49EEF0BF0A0EF0BF0A3EF04
:10173E000BF0050EE4EF0BF081B6A8EF0BF0AAEF5D
:10174E000BF0ADEF0BF0080EE4EF0BF081B8B2EF3B
:10175E000BF0B4EF0BF0B7EF0BF00B0EE4EF0BF05A
:10176E00819E818C818A819E81B2C0EF0BF0C2EF87
:10177E000BF0C5EF0BF0030EE4EF0BF081B4CAEFE4
:10178E000BF0CCEF0BF0CFEF0BF0060EE4EF0BF0FF
:10179E0081B6D4EF0BF0D6EF0BF0D9EF0BF0090EAC
:1017AE00E4EF0BF081B8DEEF0BF0E0EF0BF0E3EFC0
:1017BE000BF00C0EE4EF0BF0FF0E1200C20E096ED2
:1017CE000BC0D9FF0CC0DAFFDF50A5EC10F0C30E32
:1017DE00096E20EE01F00B50D9260C50DA22DF50A4
:1017EE00A5EC10F0C40E096E3A0EA5EC10F0C50E65
:1017FE00096E20EE02F00B50D9260C50DA22DF5083
:10180E00A5EC10F0C60E096E20EE03F00B50D92693
:10181E000C50DA22DF50A5EC10F0C70E096E3A0E0E
:10182E00A5EC10F0C80E096E20EE04F00B50D92670
:10183E000C50DA22DF50A5EC10F0C90E096E20EE26
:10184E0005F00B50D9260C50DA22DF50A5EC10F023
:10185E00CB0E096E20EE06F00B50D9260C50DA2274
:10186E00DF50A5EC10F0CC0E096E20EE07F00B50F9
:10187E00D9260C50DA22DF50A5EC10F0CE0E096EF0
:10188E0020EE08F00B50D9260C50DA22DF50A5ECD2
:10189E0010F0CF0E096E20EE09F00B50D9260C5029
:1018AE00DA22DF50A5EC10F0120087EC10F017ECE6
:1018BE000EF0010E8FEC0EF05F6E9FEF0CF00B0E24
:1018CE005F18D8A46DEF0CF06FEF0CF077EF0CF003
:1018DE00000E016E010E11EC10F0010E0001E56F0D
:1018EE003BEC08F05EEF0CF00C0E5F18D8A482EF04
:1018FE000CF084EF0CF08BEF0CF0000E016E010E6D
:10190E0011EC10F00001E56B2EEC06F05EEF0CF022
:10191E0001EC0AF05EEF0CF000EC05F05EEF0CF05F
:10192E0068EC0FF05EEF0CF039EC07F05EEF0CF0A8
:10193E000001E5515D6E5E6A5E50000AD8B4AAEFF2
:10194E000CF05EEF0CF05D50000AD8B466EF0CF0B0
:10195E00010AD8B47BEF0CF0030AD8B48FEF0CF069
:10196E00010AD8B49BEF0CF0070AD8B493EF0CF031
:10197E00010AD8B497EF0CF05EEF0CF000EF00F018
:10198E00066A04BECFEF0CF0CDEF0CF0D5EF0CF0E5
:10199E00036C041ED8B0042A010E066E02BEDCEFE4
:1019AE000CF0DAEF0CF0E2EF0CF0016C021ED8B086
:1019BE00022A010E061A000E086E000E076E035064
:1019CE000410D8B4EDEF0CF0EFEF0CF017EF0DF0B4
:1019DE00010E056EF7EF0CF0D89003360436052A8B
:1019EE0004AEFCEF0CF0FEEF0CF0F3EF0CF0D89021
:1019FE00073608360350015C04500258D8A00AEF8F
:101A0E000DF00CEF0DF011EF0DF00350015E0450D0
:101A1E00025A0780D89004320332052EFEEF0CF0E6
:101A2E000650D8B41DEF0DF01FEF0DF023EF0DF0A3
:101A3E00076C081ED8B0082A07C001F008C002F0D3
:101A4E001200066A02BE30EF0DF02EEF0DF036EFEB
:101A5E000DF0016C021ED8B0022A010E066E04BEF5
:101A6E003DEF0DF03BEF0DF041EF0DF0036C041E5A
:101A7E00D8B0042A03500410D8B448EF0DF04AEF42
:101A8E000DF06EEF0DF0010E056E52EF0DF0D890C9
:101A9E0003360436052A04AE57EF0DF059EF0DF05C
:101AAE004EEF0DF00350015C04500258D8A062EFC7
:101ABE000DF064EF0DF068EF0DF00350015E045071
:101ACE00025AD89004320332052E59EF0DF006500B
:101ADE00D8B474EF0DF076EF0DF07AEF0DF0016CD7
:101AEE00021ED8B0022A01C001F002C002F012009C
:101AFE00956A9450F80B946E8290C30E036ECD0EC1
:101B0E00E82EFED7032EFCD70000000E016E330E1A
:101B1E0011EC10F01B0E036E9E0EE82EFED7032E58
:101B2E00FCD700D0000E016E330E11EC10F0A60E95
:101B3E00E82EFED700D0000E016E330E11EC10F021
:101B4E0000D000D00000000E016E020E11EC10F05D
:101B5E00A60EE82EFED700D0000E016E380E11EC48
:101B6E0010F0A60EE82EFED700D0000E016E010E6C
:101B7E0011EC10F0040E036E3E0EE82EFED7032E6F
:101B8E00FCD7000E016E0C0E11EC10F0A60EE82E16
:101B9E00FED700D01200C00E096E0B50D96EDA6A55
:101BAE00DF50A5EC10F0C10E096E0B50D96EDA6A3B
:101BBE00010ED926DF50A5EC10F0C20E096E3A0EBA
:101BCE00A5EC10F0C30E096E0B50D96EDA6A020E38
:101BDE00D926DF50A5EC10F0C40E096E0B50D96E4D
:101BEE00DA6A030ED926DF50A5EC10F0C50E096E89
:101BFE003A0EA5EC10F0C60E096E0B50D96EDA6ACD
:101C0E00040ED926DF50A5EC10F0C70E096E0B504E
:101C1E00D96EDA6A050ED926DF50A5EC10F0120047
:101C2E00020E48EC10F00001CE6F010E48EC10F0E1
:101C3E000001CF6F000E48EC10F00001D06FCEAD5A
:101C4E002BEF0EF02DEF0EF038EF0EF0CE390F0B0E
:101C5E00010B300FE66FCE510F0B300FE76F41EFD8
:101C6E000EF0CE390F0B030B300FE66FCE510F0B6C
:101C7E00300FE76FCF390F0B0F0B300FE86FCF51CF
:101C8E000F0B300FE96FD0390F0B0F0B300FEA6FC0
:101C9E00D0510F0B300FEB6FEC6B1200000E066E77
:101CAE00000E056E03500410D8B460EF0EF062EF14
:101CBE000EF08AEF0EF0010E076E6AEF0EF0D8905E
:101CCE0003360436072A04AE6FEF0EF071EF0EF0F6
:101CDE0066EF0EF0D890053606360350015C0450C0
:101CEE000258D8A07DEF0EF07FEF0EF084EF0EF0CD
:101CFE000350015E0450025A0580D890043203321C
:101D0E00072E71EF0EF005C001F006C002F01200B2
:101D1E00016E61EC0BF0026E0150D8A499EF0EF03B
:101D2E009BEF0EF09EEF0EF00250C8EF0EF0010486
:101D3E00D8A4A4EF0EF0A6EF0EF0C7EF0EF0022817
:101D4E00D8B4ACEF0EF0AEEF0EF0BAEF0EF000011D
:101D5E00CB51D8B4B5EF0EF0B7EF0EF0BAEF0EF0E0
:101D6E00CB6B9BEF0EF00228D8A4C0EF0EF0C2EFA3
:101D7E000EF0C7EF0EF0010E0001CB6FC7EF0EF0A5
:101D8E00FF0E120076696577206C6F6720000000E9
:101D9E000000000000000000636C656172206C6F33
:101DAE00672020202000000000000000646F776E86
:101DBE006C6F6164206C6F67000000000000000013
:101DCE007365742074696D6520202020000000006A
:101DDE00000000004F4E00474E00473100473200D2
:101DEE004733004734004735004752004320000177
:101DFE000101000E016E055011EC10F01DEF0FF0F9
:101E0E00010E016E03C0F6FF04C0F7FFF86A050E5F
:101E1E00F76403D00800F55005D0F6CFE9FFF7CFF1
:101E2E00EAFFEF5011EC10F0034A042A03C0F6FF4C
:101E3E0004C0F7FFF86A050EF76403D00800F550EA
:101E4E0005D0F6CFE9FFF7CFEAFFEF500009D8A48F
:101E5E0033EF0FF035EF0FF007EF0FF012000350D6
:101E6E000410D8B43DEF0FF03FEF0FF063EF0FF01B
:101E7E00010E056E47EF0FF0D89003360436052A93
:101E8E0004AE4CEF0FF04EEF0FF043EF0FF0035098
:101E9E00015C04500258D8A057EF0FF059EF0FF025
:101EAE005DEF0FF00350015E0450025AD8900432D9
:101EBE000332052E4EEF0FF001C001F002C002F00A
:101ECE001200000E016E010E11EC10F00001E36B1A
:101EDE00000EDA6F000ED96F000ED86F000ED76F9E
:101EEE00390E036E0350D8A4060E046E800E056ED6
:101EFE0000EC0FF04D0E076E190E066E500EE82E0A
:101F0E00FED7062EFCD7072EFAD7010E0001E56F7D
:101F1E001200920EF66E1D0EF76E000EF86E00EEAB
:101F2E0060F010EE6EF00900F5CFEEFFE550E150D7
:101F3E00FAE101EE00F0820EEE6AE806FDE100EE37
:101F4E00CEF01E0EEE6AE806FDE15F6A000EF86E38
:101F5E0000015CEF0CF0C282C2B2B8EF0FF0BAEF24
:101F6E000FF0B3EF0FF0C3CF03F0060E046ED89050
:101F7E000332042EBEEF0FF00350C4CF05F0066AF5
:101F8E00D89005360636D890053606360510016E01
:101F9E000650026E1200056EEAEC10F0A00ED6ECA2
:101FAE0010F00550D6EC10F00250D6EC10F0E6EC26
:101FBE0010F00B0E046EB80E036E0306D8A00406C6
:101FCE00032806E10428D8A4EFEF0FF0F1EF0FF08D
:101FDE00E4EF0FF01200000E48EC10F00B6E0B50F9
:101FEE008009096E000E96EC10F0020E48EC10F00F
:101FFE000B6E0B500109096E020E96EC10F0000EDE
:10200E0048EC10F00B6E0B507F0B096E000E96EC29
:10201E0010F01200026E01B017EF10F01AEF10F070
:10202E0082821BEF10F0829202C083FF8284829420
:10203E00958E828082928284829483BE29EF10F0E4
:10204E002BEF10F022EF10F08290959E120039EFD8
:10205E0010F002C0F6FF060EF76E0800F550B1EC58
:10206E0010F0022A02C0F6FF060EF76E0800F550B9
:10207E000009D8A445EF10F047EF10F030EF10F044
:10208E001200026EEAEC10F0D00ED6EC10F00250F8
:10209E00D6EC10F0EEEC10F0D10ED6EC10F0DCEC2D
:1020AE0010F0036EE6EC10F003501200C29AC288D4
:1020BE00C296C294C280C186C194C182C190C19A97
:1020CE00C198C09EC094C082C090C08AC098C0966D
:1020DE00C46AC36A1200026EEAEC10F0A00ED6ECCF
:1020EE0010F00250D6EC10F0EEEC10F0A10ED6EC83
:1020FE0010F0DCEC10F0036EE6EC10F00350120062
:10210E005DEC10F0E2EC10F07FEC0DF0CEEC10F088
:10211E00F2EC0FF0BCEC10F00001E56B12000A6E51
:10212E00EAEC10F0D00ED6EC10F00A50D6EC10F00F
:10213E000950D6EC10F0E6EC10F012000A6E000E0C
:10214E00016E095011EC10F0010E016E0A5011ECE7
:10215E0010F01200016E9EA8B7EF10F0B9EF10F05C
:10216E00B2EF10F001C0ADFF1200948E949CAC84BF
:10217E00AB8EAB88810EAF6E9D8A12009EA6CAEF03
:10218E0010F0CCEF10F0C5EF10F09E961200948672
:10219E009488280EC66E310EC86EC79C1200016E52
:1021AE0001C0C9FFC5EC10F01200F2EC10F0F6EC15
:1021BE0010F0C95012001E0E936EF19E1200C584CF
:1021CE00C5EC10F01200C580C5EC10F01200C582EF
:1021DE00C5EC10F01200C586C5EC10F01200C58AD1
:0421EE00C58812008E
:020000040020DA
:08000000FFFFFFFFFFFFFFFF00
:020000040030CA
:0E000000FF071F1FFF8285FF0FC00FE00F409C
:00000001FF
